00COTAHIST.2014BOVESPA 20141231                                                                                                                                                                                                                      
012014121852MUDR4L      017RIO MUDRIRÉ PN *         R$  000000006120000000000612000000000061200000000006120000000000612000000000061200000000000000000007000000000003299717000000000201942680000000000000009999123100010000000000000000BRMUDRACNPR3108

99COTAHIST.2014BOVESPA 2014123100000392230                                                                                                                                                                                                           
