00COTAHIST.XXXXBOVESPA 20171229   

012017010202AALR3       010ALLIAR      ON      NM   R$  000000000146200000000014880000000001440000000000145800000000014600000000001460000000000147300087000000000000035900000000000052350500000000000000009999123100000010000000000000BRAALRACNOR6100
012017010210ABCB2       010ABC BRASIL  DIR PRE N2   R$  000000000028500000000002850000000000285000000000028500000000002850000000000200000000000000000001000000000000000200000000000000057000000000000000009999123100000010000000000000BRABCBD10PR0126
012017010202ABCB4       010ABC BRASIL  PN  EJS N2   R$  000000000134000000000013520000000001308000000000133000000000013310000000001331000000000133400998000000000000195800000000000260557000000000000000009999123100000010000000000000BRABCBACNPR4127
012017010296ABCB4F      020ABC BRASIL  PN  EJS N2   R$  000000000134500000000013480000000001315000000000132900000000013260000000001326000000000134800020000000000000000582000000000000773943000000000000009999123100000010000000000000BRABCBACNPR4127
012017010212ABCP11      010FII ABC IMOBCI  ER       R$  000000000118300000000011830000000001101000000000116200000000011360000000001138000000000120500019000000000000001210000000000001407143000000000000009999123100000010000000000000BRABCPCTF000255
012017010202ABEV3       010AMBEV S/A   ON  EJ       R$  000000000163400000000016660000000001626000000000164200000000016310000000001631000000000163609421000000000004265400000000007004006700000000000000009999123100000010000000000000BRABEVACNOR1115
012017010296ABEV3F      020AMBEV S/A   ON  EJ       R$  000000000164100000000016660000000001627000000000164500000000016600000000001633000000000166000506000000000000008965000000000014753680000000000000009999123100000010000000000000BRABEVACNOR1115
012017010262ABEV3T      030AMBEV S/A   ON  EJ    016R$  000000000165500000000016560000000001649000000000165300000000016500000000000000000000000000000006000000000000001300000000000002149105000000000000009999123100000010000000000000BRABEVACNOR1115
012017010262ABEV3T      030AMBEV S/A   ON  EJ    045R$  000000000165600000000016570000000001656000000000165600000000016570000000000000000000000000000002000000000000000300000000000000496824000000000000009999123100000010000000000000BRABEVACNOR1115
012017010262ABEV3T      030AMBEV S/A   ON  EJ    060R$  000000000169100000000016940000000001691000000000169200000000016940000000000000000000000000000004000000000000006000000000000010157990000000000000009999123100000010000000000000BRABEVACNOR1115
99COTAHIST.XXXXBOVESPA 201712293100000392230 